:020000040800F2
:10000000C0050020C90000081F1200081D120008CA
:1000100000000000000000000000000000000000E0
:100020000000000000000000000000002312000893
:100030000000000000000000211200082512000846
:10004000DB00000800000000DB000008DB00000807
:10005000DB000008DB000008DB000008DB00000814
:1000600000000000DB00000859010008DB00000868
:10007000DB000008DB000008DB00000800000000D7
:10008000DB000008DB00000800000000DB000008C7
:10009000DB000008DB000008DB000008DB000008D4
:1000A000DB000008DB000008DB000008DB000008C4
:1000B000DB0000080348854600F03CF80048004794
:1000C000011A0008C0050020044880470448004782
:1000D000FEE7FEE7FEE7FEE7FEE7FEE72D1200087B
:1000E000B500000830B50B4601460020202201244F
:1000F00009E00D46D5409D4205D31D469540491B5C
:100100002546954040191546521E002DF1DC30BDA4
:10011000D2B201E00270401C491EFBD2704700229F
:10012000F6E710B513460A4604461946FFF7F0FFF6
:10013000204610BD064C0125064E05E0E36807CCBD
:100140002B430C3C98471034B442F7D3FFF7B6FF6B
:100150004C1D00086C1D000810B5024800F005F8A1
:1001600010BD0000300100207047F0B4C16B0D6875
:1001700001680C680422066C1346B3402B4210D071
:1001800063070ED50B689B0602D40B6893430B6084
:10019000016C8A40C16B4A60C16A002935D1F0BC4C
:1001A00070470227B74002462F4001232032002F1C
:1001B00015D0A70713D50C68A40604D40C680A252B
:1001C000AC430C605370036C02219940C36B5960BF
:1001D00000211170816A002917D1F0BC70470827EF
:1001E000B7402F42F9D02407F7D50C680E25AC4351
:1001F0000C60046C1946A140C46B6160836353704A
:1002000000211170016B0029E7D0F0BC0847000005
:10021000002801D10120704770B504460220214614
:1002200020310D464870226811681248A3680140C9
:10023000606826691843E3683343184363691843C9
:10024000A3691843E3691843084310600A4920680A
:1002500040181421FFF746FF800020640748E06340
:100260000020A062E06220636063A06301216970E6
:10027000287070BD0FC0FFFFF8FFFDBF00000240F7
:1002800031B500F0BDF8009C0546601C00D0641C30
:1002900000F0B6F8401BA042FAD338BD0B6800222C
:1002A000002B6FD0F8B401270B6897403B406AD011
:1002B0004C68022C01D0122C0ED1D408A4002418B2
:1002C000A446246A5507ED0E0F26AE40B4430E69CE
:1002D000AE40264364462662056856000324B440B7
:1002E000A446A5430C79A407A40FB4402C43046092
:1002F0004C68012C05D0022C03D0112C01D0122CFB
:100300000FD185686446A5432C46CD68B54025438A
:10031000856045680C79BD43E406E40F94402C43A6
:100320004460C4686546AC438D68B5402543C560EC
:100330004C68E40049D5294CA56901263543A561DF
:10034000A469950834400094254CAD002F19BC6871
:1003500095072E0F0F25B540AC430925ED06A842A1
:1003600001D1002511E01F4DA84201D101250CE06B
:100370001D4DA84201D1022507E01C4DA84203D122
:10038000032502E028E020E00525B5402543BD60B7
:10039000174C25684E689D43F60300D51D43256024
:1003A00065684E689D43B60300D51D436560A5682A
:1003B0004E689D43F60200D51D43A560E5684E6872
:1003C0009D43B60200D51D43E5600B68521CD34027
:1003D00000D068E7F8BC704770470000001002408A
:1003E000000001400004004800080048000C0048DC
:1003F00000040140002A01D081617047816270478A
:10040000014800687047000014000020024801689D
:10041000491C0160704700001400002010B5064818
:100420000168102211430160002000F007F800F07D
:1004300017F8002010BD00000020024010B504464F
:1004400000F026F97D21C900FFF74CFE00F0F0FB1B
:1004500000222146501E00F021F8002010BD0000AF
:10046000084881B08169012211438161816911408D
:100470000091C26901040A43C261C069084000904A
:1004800001B0704700100240C106C90E012088402B
:10049000014908607047000000E100E08207D30EC8
:1004A000FF229A408907090E994000280BDA0007BD
:1004B000000F0838830808489B001818C369934345
:1004C0000B43C3617047830804489B001B181868DE
:1004D000904308431860704700ED00E000E400E03E
:1004E000F0B50546614889B000680F46C007C00FE7
:1004F000B8420AD25D4801684908490039430160A1
:100500000068C007C00FB84271D12878800706D5AF
:1005100057484168F0229143AA6811434160287806
:10052000C00754D06868012821D0514902280968C1
:1005300022D089075BD54E4C616889088900014348
:100540006160FFF75DFF064669684A48012916D0D9
:100550006268022925D01207920F38D00446FFF7AF
:100560004FFF801BA0422DD9032009B0F0BD4049A8
:10057000096889033BD5DEE7890138D5DBE7626886
:100580001207920F012A22D00446FFF739FF801B81
:10059000A042E9D8364840680007800F0128F4D10E
:1005A00015E01207920F022A11D00446FFF728FF28
:1005B000801BA042D8D82E4840680007800F022830
:1005C000F4D104E02A4840680007800FC7D12748CB
:1005D0000168C907C90FB9420CD901684908490027
:1005E000394301600068C007C00FB84202D0012043
:1005F00009B0F0BD2878400707D51D48416807229B
:1006000012029143EA68114341601B4A6C460FCACB
:100610000FC41A4B164D0FCB0FC46A680C2011463D
:1006200001401748042913D0082911D19102090F5C
:100630006B465C5CE96A04AB0907090F595CD2039D
:1006400003D5FFF74FFD604302E00E4920464843C3
:1006500069680D4A0906090F515CC8400B490860DA
:100660000020FFF7EBFE002009B0F0BD00200240A3
:1006700000100240881300000C0700081C07000847
:1006800000127A0000093D00341D00081800002007
:100690000148006870470000180000200448054920
:1006A00000684968044A4905490F515CC8407047D1
:1006B0001800002000100240441D000810B513A0CF
:1006C0000FC888B06C460FC414A30FCB0FC41749D2
:1006D0004A680C20134603401548042B0FD0082B02
:1006E0000DD193021C0F6B461C5DC96A04AB090750
:1006F000090F595CD20304D5FFF7F4FC604308B03E
:1007000010BD0C4808B0604310BD00000203040592
:10071000060708090A0B0C0D0E0F10100102030446
:1007200005060708090A0B0C0D0E0F1000100240F9
:1007300000127A0000093D00F8B504460078E24D49
:10074000C0074BD068680007800F012807D0686891
:100750000007800F022809D16868C00306D5286801
:1007600080033BD5606800287ED037E001206268B6
:100770000004012A1CD08100002A01D0052A1BD0C8
:100780002A6882432A6028688843286060680028B5
:1007900016D0FFF735FE0646286880031ED4FFF703
:1007A0002FFE801B642878D828688003F7D515E0D1
:1007B000296801432960E9E72A680A432A60F7E7C4
:1007C000FFF71EFE06462868800307D5FFF718FED0
:1007D000801B642861D828688003F7D420788007BC
:1007E00040D568680007800F07D068680007800F51
:1007F000022809D16868C00306D42868800718D584
:10080000E068012830D114E0E0680028286818D09A
:10081000012108432860FFF7F3FD0646286880079A
:1008200007D4FFF7EDFD801B022836D82868800723
:10083000F7D52868F82188432169C9000843286052
:1008400010E0400840002860FFF7DAFD06462868FF
:10085000800707D5FFF7D4FD801B02281DD8286824
:100860008007F7D4207800E02BE1000728D5E06965
:10087000002813D0696A012001436962FFF7C0FDB7
:100880000646686A80071BD4FFF7BAFD801B022862
:1008900003D8686A8007F7D512E08DE0686A4008DF
:1008A00040006862FFF7ACFD0646686A800707D51E
:1008B000FFF7A6FD801B02287ED8686A8007F7D460
:1008C0002078400768D500200090E869C00008D46F
:1008D000E869012109070843E861E8690840012047
:1008E00000907A4F3868C00511D43868B9150843AC
:1008F0003860FFF785FD06463868C00507D4FFF766
:100900007FFD801B642857D83868C005F7D5A068DC
:1009100001281ED0002801D005281ED0286A4008D2
:1009200040002862296A042081432962A068684E39
:1009300000281BD0FFF764FD0746286A800723D4F0
:10094000FFF75EFDC01BB04260D8286A8007F7D56C
:100950001AE0296A01200143E7E7286A04210843D5
:100960002862286A012108432862DFE7FFF748FD73
:100970000746286A800707D5FFF742FDC01BB04233
:1009800044D8286A8007F7D40098002804D0E96981
:10099000012000078143E9612078C0061CD5606909
:1009A000012835D0401D51D0686B0421084368638D
:1009B000686B4008400000E028E06863FFF720FD16
:1009C0000646686B800707D5FFF71AFD801B0228D3
:1009D0001CD8686B8007F7D4206A00286FD069683C
:1009E0000907890F02296CD00126360602282868DB
:1009F00031D0B0432860FFF703FD0446286880012A
:100A00005DD5FFF7FDFC001B022855D90320F8BD7A
:100A1000696B042001436963686B012108436863C3
:100A2000FFF7EEFC0646686B800707D4FFF7E8FC8B
:100A3000801B0228EAD8686B8007F7D5686BF8211D
:100A40008843A169C90008436863C5E7696B04204E
:100A500081436963F2E7B0432860FFF7D1FC0746A2
:100A60002868800107D5FFF7CBFCC01B0228CDD832
:100A700028688001F7D4E86AE16A000900010843A8
:100A8000E862A16A606A014368683D2212049043EB
:100A900001436960286830432860FFF7B1FC0446D1
:100AA000286880010BD4FFF7ABFC001B0228ADD8EF
:100AB00028688001F7D502E028688001A1D40020D1
:100AC000F8BD0120F8BD0000001002400070004099
:100AD00088130000002801D101207047F8B50026D6
:100AE0000546044640358662687F002803D12E778C
:100AF000204600F04BF802236B7720680168402203
:100B0000914301600721E0680902884201D900226F
:100B100001E0012212030F273F02B84202D08842AF
:100B200000D0A662276B002F05D1884201D923632C
:100B300001E001202063A1686068636908432169BE
:100B4000194308430123A1695B0219400843E16985
:100B50000843216A0843A16A084321680860616B61
:100B6000606AA36908431B0C0427E1683B401943F2
:100B700008432168104348602068C1697A029143A4
:100B8000C1612666012068770020F8BDF0B587B006
:100B90000025064600950195029503950495006889
:100BA0001F4988423AD11F498A69801402438A61E9
:100BB0008A69024005924A69400102434A614969D3
:100BC000022401400591202000900327092003976B
:100BD00001946946C006FFF761FB80200090012068
:100BE000029009200194694603970495C006FFF717
:100BF00055FB0E4C0C4820601020A56060602561FC
:100C00006561A5618020E561E0602046FFF700FB9B
:100C1000002801D0FFF7A8FA7465666207B0F0BD3E
:100C2000003001400010024030000240300100203E
:100C30000B4910B4401E884202D910BC01207047F5
:100C40000849486108480722C3691B021B0A4C0473
:100C50002343C361002088610A6110BC7047000013
:100C6000FFFFFF0000E000E004ED00E0034620335A
:100C70001A7F012A01D10220704730B401241C7769
:100C800002225A770325CA682D02AA438D6800689C
:100C90002A43A502AA434D682A43E502AA430D68E8
:100CA0002A432503AA430D692A436503AA434D69D4
:100CB00089692A43A503AA430A43E503AA430A43D1
:100CC00042645C770020187730BC704702462032BF
:100CD000137F012B01D10220704770B401231377D9
:100CE00002245477046865687026B543656004681B
:100CF00065680E68354365600468A5688026B5435D
:100D0000A5600068846849680C43846053770020BC
:100D1000107770BC7047002801D10120704770B572
:100D2000054604462035687F002803D128772046F1
:100D300000F00AF802206877211D206800F0A4FA6C
:100D400001206877002070BD0068074981B08842A3
:100D500007D106488269C1140A438261806908404C
:100D6000009001B070470000002C014000100240CC
:100D7000F0B5054620352A7F012A19D001222A77AD
:100D800002226A7703689A687724A243FF24240228
:100D9000A2439A600E6870220723502E42D00EDCC8
:100DA000202E7DD006DC002E7BD0102E57D19EE069
:100DB0000220F0BD302E75D0402E50D173E0602E51
:100DC0004ED0702E1CD001221203B31A13D09342BE
:100DD00045D10268CF688E684B689168A1433C0298
:100DE0001C4334430C4394600068816801229203E1
:100DF0001143816092E000688168C908C900F8E782
:100E00000268CF688E684B689168A1433C021C431E
:100E100034430C4394600268906877218843084308
:100E200090607BE004684E68CF68216AB646BC4695
:100E3000266A760876002662A669F027BE436746D2
:100E40003F0137430A26B14376463143A761216209
:100E500004685021A068904308431843A0605DE0F7
:100E60004E680468B646CE68216A1027B9432162ED
:100E7000A169276A3603BC460F273F03B9430E43D7
:100E80006746A0218F43714609013943A66121625B
:100E900001686024886890432043184388603DE0DF
:100EA0002DE01EE033E004684E68CF68216AB64644
:100EB000BC46266A760876002662A669F027BE43FD
:100EC00067463F0137430A26B14376463143A7615F
:100ED0002162016840248868904320431843886059
:100EE0001CE00168886890431843886016E0016838
:100EF0001024886890432043184388600EE00168FE
:100F000020248868904320431843886006E00468E2
:100F10003021A068904308431843A06001206877FF
:100F200000202877F0BD000000B587B000210091B7
:100F3000019102910391049100680C49884212D1F9
:100F40000B484269012149040A4342614069084053
:100F500005904812009002200190049009206946F3
:100F6000C006FFF79BF907B000BD0000002C014050
:100F700000100240F8B5064604462036307F0D4684
:100F800001280CD00120307702207077002A08D089
:100F9000042A19D0082A2CD00C2A71D171E0022021
:100FA000F8BD206800F0B6F9206881690822114375
:100FB000816120688169042291438161206881698F
:100FC0002A69114381619BE0206800F0E9F92068FB
:100FD00081690122D2021143816120688169521026
:100FE00091438161206881692A69120211438161FC
:100FF00086E02068016AFF22013291430162076A9C
:101000004268C1697023994389082B6889000B43A2
:10101000012149028F43A968090239433B4FB84275
:1010200008D1C714B943EF683F020F4301158F433E
:10103000394608E0364FB84205D0364FB84202D0A4
:10104000354FB84208D103273F03BA436F693F01C8
:101050001743AA6912013A434260C3616A68C263D6
:1010600001622068C16908221143C1612068C16919
:1010700004229143C1612068C1692A691143C16199
:101080003EE02068026A012109038A430262026A83
:101090004168C76973231B029F432B681B023B43B4
:1010A00001277F03BA43AF683F031743174A9042B3
:1010B00008D0174A904205D0164A904202D0164AEC
:1010C000904206D10A46012189038A436969890150
:1010D00011434160C3616968016407622068C169A6
:1010E0000122D2021143C1612068C2690121890233
:1010F0008A43C2612068C1692A6912021143C16131
:101100000120707700203077F8BD0000002C0140EE
:10111000004001400044014000480140002801D146
:101120000120704770B5054604462035687F0028C9
:1011300003D12877204600F00AF802206877211DA5
:10114000206800F0A1F801206877002070BD70478A
:10115000002801D10120704770B50546044660356E
:10116000687A0026002803D12E72204600F02AF863
:1011700024206872206801684908490001602046FF
:1011800000F0CAF901281BD0606A002802D020466E
:1011900000F05CF9206841680122D202914341606D
:1011A00020688168082291438160206801680122DB
:1011B000114301603046E66620216972A9722E72E1
:1011C00070BD000000B587B000210091019102912F
:1011D0000391049100680F49884219D10E48C269F1
:1011E000012149040A43C261C2690A400592426969
:1011F0000A4342614069084005900C20009002209B
:1012000001900120049009206946C006FFF746F8C6
:1012100007B000BD0044004000100240FEE77047E8
:101220007047704710B5FFF7F1F810BD134801681B
:101230000122114301604168114A11404160016877
:10124000104A11400160016801229204914301603B
:1012500041683F22120491434160C16A09090901B2
:10126000C162016BFF22143291430163416B490853
:101270004900416300218160704700000010024076
:101280000CB8FF08FFFFF6FEF0B402681B4B1C4CC5
:10129000984201D0A04203D17025AA434D682A4349
:1012A000184D194E194F98420AD0A04208D0184C38
:1012B000A04205D0A84203D0B04201D0B84205D127
:1012C0001446032212029443CA6822438024A24394
:1012D0004C69224302608A68C2620A68826298424C
:1012E00005D0A84203D0B04201D0B84201D109696B
:1012F000016301214161F0BC70470000002C0140F6
:10130000000400400040014000440140004801400A
:1013100000200040F0B4026A520852000262056ADE
:10132000436882697024A24392080C6892001443B7
:10133000022295438A68174E2A43154DA84207D0CA
:10134000B04205D0144FB84202D0144FB84206D173
:101350000827BA43CF681743042297433A46A84266
:1013600007D0B04205D00C4DA84202D00B4DA84288
:1013700006D103252D02AB434D691D438B692B43D9
:1013800043608461496841630262F0BC70470000B9
:10139000002C014000400140004401400048014051
:1013A00070B4026A10239A430262056A4268836934
:1013B00073242402A3430C6824021C4320239D436E
:1013C0008B681B012B43124DA84208D11D46CB68E8
:1013D0008026B5431B012B434025AB4308E00D4D50
:1013E000A84205D00C4DA84202D00C4DA84208D10D
:1013F0000325AD02AA434D69AD0015438A699200E9
:101400002A434260846149688163036270BC70470B
:10141000002C0140004001400044014000480140D0
:1014200010B508488078002803D148210648FEF707
:1014300076FE4821044800F00FFC0120FEF720FF53
:1014400010BD0000000000207401002010B4818C49
:10145000C90707D001684A6801235B049A43836A7D
:101460001A434A60818C890707D501684A680123BD
:101470001B049A43C36A1A434A60818C490707D503
:1014800001684A6801239B049A43036B1A434A602C
:10149000818C090707D501684A680123DB039A4359
:1014A000436B1A434A60818CC90607D5026891686C
:1014B00001231B039943836B19439160818C890637
:1014C00007D501688A6801235B039A43C36B1A43FB
:1014D0008A60818C490612D503685A680121090582
:1014E000046C8A4322435A60026C8A4207D1026824
:1014F000516803235B059943436C19435160818C08
:10150000090607D501684A680123DB04806C9A4309
:1015100002434A6010BC7047F8B504462369A268CC
:10152000E5691A436369102000212B431A4323689D
:101530000E461D684D4F3D4015431D6023685A6897
:1015400003252D03AA43E5682A435A60236AA2694A
:1015500025681A43AB680B273F02BB431343AB60BC
:10156000434A2568954210D1424A126B9207920F66
:101570000ED0012A05D0022A05D0032A09D1022063
:1015800007E0042005E0082003E03B4A954200D133
:1015900000200122E369D203934235D100280ED006
:1015A000022816D004281CD0082824D001260A09B5
:1015B00008071201400F21681043C8602DE0FFF7B3
:1015C0006DF8616840004A088018FEF78BFD81B213
:1015D000EDE76168294A48088018FEF783FD81B26B
:1015E000E5E7FFF76BF8616840004A088018FEF7EE
:1015F00079FD81B2DBE76168012248081204801896
:10160000FEF770FD81B2D2E7002808D0022811D081
:10161000042818D0082821D001263046F8BDFFF74D
:101620003DF861684A088018FEF75CFD216880B2C9
:10163000C860F2E76168124A48088018FEF752FD58
:1016400080B2E860E9E7FFF739F861684A08801876
:10165000FEF748FD216880B2C860DEE7616848088F
:101660008018FEF73FFD80B2E860D6E7F369FFFF20
:101670000038014000100240004400400024F40003
:1016800000127A0002E008C8121F08C1002AFAD12D
:1016900070477047002001E001C1121F002AFBD1F2
:1016A00070470000F0B5124C2068016840252943BE
:1016B000016000F023FB1727172220680D490368FB
:1016C0002B430360012023689E68B60702D50E787D
:1016D0001E73491C401EF6D51046521E92B20028B9
:1016E000EBD17F1EE8D20121034800F09FFAF0BD44
:1016F0001C0000200E0000200000002010B5224A2F
:101700009278002A37D1214B052834D202007A443E
:10171000127992189744140B022A1D000C205B1EAC
:10172000D9709971401E9B1D0028F9D123E00C202F
:10173000DB1ED9709971401E9B1D0028F9D11AE05B
:101740000C209B1ED9709971401E9B1D0028F9D159
:1017500011E00C226420D221DB1ED870197198711F
:10176000D971521E9B1D002AF7D104E00A46482178
:101770000648FEF7CDFC4821044800F06DFA012030
:10178000FEF77EFD10BD0000000000207401002067
:1017900070B5002000F086F83F4C2046FEF770FD43
:1017A000FF210020FFF7AAFF2046FEF769FD3B4D11
:1017B000A878002803D148213948FEF7B0FC482119
:1017C000374800F049FA0120FEF75AFD012000F0E9
:1017D00069F82046FEF754FDFF210120FFF78EFF38
:1017E0002046FEF74DFDA878002803D148212C485B
:1017F000FEF795FC48212A4800F02EFA0120FEF75A
:101800003FFD022000F04EF82046FEF739FDFF2193
:101810000220FFF773FF2046FEF732FDA87800286C
:1018200003D148211E48FEF77AFC48211C4800F0ED
:1018300013FA0120FEF724FD042000F033F82046BF
:10184000FEF71EFDA878002803D148211448FEF7B2
:1018500066FC4821124800F0FFF90120FEF710FD58
:10186000032000F01FF82046FEF70AFDFF210320A9
:10187000FFF744FF2046FEF703FDA878002803D1B8
:1018800048210748FEF74BFC4821054800F0E4F9E1
:101890000120FEF7F5FC70BD881300000000002059
:1018A0007401002070B5054600240023E0B20A222E
:1018B000294600F051F8601C0023C0B21E222946C0
:1018C00000F04AF8A01C0023C0B23222294600F0E2
:1018D00043F8E01C0023C0B24622294600F03CF841
:1018E000201D0023C0B25A22294600F035F8601DA1
:1018F0000023C0B26E22294600F02EF8A01D00235E
:10190000C0B28222294600F027F8E01D0023C0B2B1
:101910009622294600F020F8204608300023C0B265
:10192000AA22294600F018F8204609300023C0B248
:10193000BE22294600F010F820460A300023C0B22B
:10194000D222294600F008F80120FEF799FC641C19
:10195000182CAADB70BD0000FFB541004018264FCF
:10196000C4B27878002581B01646012802D1FFF76D
:1019700099FE7D70B878002823D102991F48052967
:101980001FD20A007A441279921897440B06021665
:101990000F0005550019457012E0065500194570F5
:1019A00085700EE005550019467004E0642101556C
:1019B000D22100194170857003E006550019467068
:1019C000867048210D4800F047F9049800280DD092
:1019D000B878002803D148210848FEF7A0FB482129
:1019E000064800F039F90120FEF74AFC0120FEF715
:1019F00047FC05B0F0BD000000000020740100208D
:101A000094B0FEF70BFD002409940E9402251020DB
:101A10000594049000950520019402940D940126EC
:101A20000F94C0040694079403960A900B940C94A8
:101A300008956846FEF780FE07270E9401210CA842
:101A40000C970D950F94FEF74BFD6E4D009401948D
:101A50000294039404946969F0040143696169691B
:101A6000014005916969C0000143696169690140EC
:101A7000059169694011014369616969002201406A
:101A80000591C1110920C006FEF7B4FC7003009057
:101A90005D480190694602945C48FEF7FFFB2815FB
:101AA000009009200196694602960394C006FEF74D
:101AB000F5FB686930436861686900223040009036
:101AC00011460A20FEF7EAFC0A20FEF7DDFC514829
:101AD0004F49016084604B21C46049020461416048
:101AE0008461C46104620C2144624161FFF730FBF0
:101AF0004A48494D0560FF2048490530486008467E
:101B0000846003200002C8600846046144616815CF
:101B100088611820C8610846046244628462C76212
:101B200004634463FEF7D6FF0E940F94109411944F
:101B300012941394009401940294039404940594D1
:101B4000069407940894374809940A940B940C94CB
:101B500033490D94016034498460416004617D2102
:101B60004461C9008461C160FFF7D5F8A8140E90E4
:101B70000EA92C48FFF7FCF82A48FFF7CFFA129479
:101B800012A928481394FFF7A1F860200090FF20C5
:101B9000F530069401900294039404940594002275
:101BA00069462048FFF7E6F90794681408940C90FA
:101BB00009940A940B9407A90D941A48FFF756F854
:101BC0001848FFF7B1F9154814490560FF200530A2
:101BD0004860084684603802C8600846046146616F
:101BE000681588610846C461046244628462C76201
:101BF00004634463FEF76EFFFFF712FCFFF7C8FDB6
:101C0000FCE700000010024000002110000800481E
:101C100000440040C0000020003001401C000020B3
:101C2000002C01408000002080BB000030B4094A35
:101C300013681C6840252C431C60491E08D4136897
:101C40009C68A40702D504781C73401C491EF6D575
:101C500030BC70471C000020F3B5244C0E462068B1
:101C6000016840221143016000F048F8204D002037
:101C7000A880E8802881701EC0B28446002E33D030
:101C800000980678401C07210090012088403042CF
:101C90000ED0184A012023689F68BF0702D5177825
:101CA0001F73521C401EF6D52889401C28810DE068
:101CB000114A012023689F68BF0702D517781F7358
:101CC000521C401EF6D5E888401CE880A888401CBD
:101CD000A8800846491EC9B20028D6D16046411ED8
:101CE000C9B28C460028CBD102B0F0BD1C00002048
:101CF000000000200A0000200E0000200C480168AF
:101D00000A6840231A430A60F9210023C91A0ED435
:101D100010B402689468A40700D51373026894682D
:101D2000A40700D51373891EF3D510BC7047704704
:101D30001C0000200000000000000000010203045D
:101D40000607080900000000010203046C1D0008DA
:101D5000000000201C00000084160008881D0008F8
:101D60001C000020A405000094160008FF010000DC
:101D7000000000000000FFFE0000FF000000000067
:081D80000000000000127A00CF
:04000005080000B53A
:00000001FF
